:100000000C9434000C943E000C943E000C943E0082
:100010000C943E000C943E000C943E000C943E0068
:100020000C943E000C943E000C943E000C943E0058
:100030000C943E000C943E000C943E000C943E0048
:100040000C943E000C943E000C943E000C943E0038
:100050000C943E000C943E000C943E000C943E0028
:100060000C943E000C943E0011241FBECFEFD8E04C
:10007000DEBFCDBF0E947F000C9408010C940000ED
:100080000097B1F05D9A61157105B1F05C9A411568
:100090005105B1F05B9A892BB1F0672B19F5452B0F
:1000A000E9F081E090E02898892BB1F4299808952F
:1000B0005D986115710551F75C984115510551F72F
:1000C0005B98892B51F7672B51F780E090E0452B27
:1000D00051F3289A892B51F3299A089580E090E0F2
:1000E000289AF8CF81E090E0452BE9F2289AF2CFE8
:1000F0008AB188638AB984B1836084B9089540E085
:1001000050E060E070E080E090E00E9440002FEF5F
:1001100083ED90E3215080409040E1F700C0000063
:1001200041E050E060E070E080E090E00E9440003C
:100130002FEF83ED90E3215080409040E1F700C025
:10014000000040E050E061E070E080E090E00E945C
:1001500040002FEF83ED90E3215080409040E1F785
:1001600000C0000041E050E061E070E080E090E01D
:100170000E9440002FEF83ED90E32150804090409B
:10018000E1F700C0000040E050E060E070E081E096
:1001900090E00E9440002FEF83ED90E321508040DB
:1001A0009040E1F700C0000041E050E060E070E006
:1001B00081E090E00E9440002FEF83ED90E321501A
:1001C00080409040E1F700C0000040E050E061E076
:1001D00070E081E090E00E9440002FEF83ED90E31B
:1001E000215080409040E1F700C0000041E050E025
:1001F00061E070E081E090E00E9440002FEF83ED2D
:1002000090E3215080409040E1F700C0000077CF9C
:04021000F894FFCF90
:00000001FF
