:100000000C9461000C9473000C9473000C947300B6
:100010000C9473000C9473000C9473000C94730094
:100020000C9473000C9473000C9473000C94730084
:100030000C9473000C9473000C9473000C94730074
:100040000C9481010C9473000C9473000C94730055
:100050000C9473000C9473000C9473000C94730054
:100060000C9473000C94730000000000240027001F
:100070002A0000000000250028002B0000000000DE
:1000800023002600290004040404040404040202DA
:100090000202020203030303030301020408102007
:1000A0004080010204081020010204081020000012
:1000B0000008000201000003040700000000000027
:1000C000000011241FBECFEFD8E0DEBFCDBF21E07E
:1000D000A0E0B1E001C01D92AF30B207E1F70E948D
:1000E000CB010C94C2020C940000833081F028F400
:1000F000813099F08230A9F008958730A9F08830D6
:10010000C9F08430B1F4809180008F7D03C080916C
:1001100080008F7780938000089584B58F7784BDA9
:10012000089584B58F7DFBCF8091B0008F77809349
:10013000B00008958091B0008F7DF9CFCF93DF9309
:10014000282F30E0F901E255FF4F8491F901E6567E
:10015000FF4FD491F901EA57FF4FC491CC23A1F08E
:1001600081110E947500EC2FF0E0EE0FFF1FE458A4
:10017000FF4FA591B491EC91ED2381E090E009F45B
:1001800080E0DF91CF91089580E090E0FACF1F9357
:10019000CF93DF93282F30E0F901E255FF4F849190
:1001A000F901E656FF4FD491F901EA57FF4FC49188
:1001B000CC23A9F0162F81110E947500EC2FF0E0DE
:1001C000EE0FFF1FEE58FF4FA591B4918FB7F89433
:1001D000EC91111108C0D095DE23DC938FBFDF9125
:1001E000CF911F910895DE2BF8CFCF93DF9390E04E
:1001F000FC01E656FF4F24918A579F4FFC018491E2
:100200008823D1F090E0880F991FFC01E859FF4F37
:10021000A591B491FC01EE58FF4FC591D4916111A5
:100220000EC09FB7F8948C91E22FE0958E238C93AB
:100230002881E223E8839FBFDF91CF9108958FB794
:10024000F894EC91E22BEC938FBFF6CF3FB7F89484
:1002500080910B0190910C01A0910D01B0910E01C4
:1002600026B5A89B05C02F3F19F00196A11DB11D11
:100270003FBFBA2FA92F982F8827BC01CD01620F4D
:10028000711D811D911D42E0660F771F881F991F08
:100290004A95D1F708958F929F92AF92BF92CF92D5
:1002A000DF92EF92FF920E9426014B015C0184E8ED
:1002B000C82E83E0D82EE12CF12C0E94260168196B
:1002C00079098A099B09683E734081059105A8F365
:1002D00021E0C21AD108E108F10888EE880E83E017
:1002E000981EA11CB11CC114D104E104F10429F72A
:1002F000FF90EF90DF90CF90BF90AF909F908F9046
:1003000008951F920F920FB60F9211242F933F93CF
:100310008F939F93AF93BF938091070190910801B2
:10032000A0910901B0910A013091060123E0230F49
:100330002D3758F50196A11DB11D2093060180931C
:10034000070190930801A0930901B0930A018091DD
:100350000B0190910C01A0910D01B0910E0101963D
:10036000A11DB11D80930B0190930C01A0930D0171
:10037000B0930E01BF91AF919F918F913F912F91BB
:100380000F900FBE0F901F90189526E8230F02962E
:10039000A11DB11DD2CF789484B5826084BD84B58F
:1003A000816084BD85B5826085BD85B5816085BD70
:1003B00080916E00816080936E0010928100809128
:1003C00081008260809381008091810081608093B0
:1003D0008100809180008160809380008091B100D5
:1003E00084608093B1008091B00081608093B00000
:1003F00080917A00846080937A0080917A00826094
:1004000080937A0080917A00816080937A00809155
:100410007A00806880937A001092C10061E082E0E7
:100420000E94F50061E083E00E94F50061E084E055
:100430000E94F50061E085E00E94F50061E08DE03A
:100440000E94F50060E086E00E94F50060E087E031
:100450000E94F50060E088E00E94F50060E089E01D
:100460000E94F50080E0C82E80E0D82E86E00E9431
:100470009E005C01909305018093040187E00E9437
:100480009E00EC01909303018093020188E00E949A
:100490009E008C01909301018093000189E00E94ED
:1004A0009E00A114B10409F044C0009709F466C08D
:1004B000209709F042C061E00115110509F060E0E4
:1004C000E12C02C0209759F5F12C0115110509F016
:1004D00044C0C1E0892B09F44FC082E00E94C700EC
:1004E0006E2D83E00E94C7006F2D84E00E94C7003C
:1004F0006C2F85E00E94C7000E944B0160E08DE0F8
:100500000E94C7000E944B0161E08DE00E94C7007D
:10051000C114D10409F4AACF0E940000A7CF01158D
:100520001105D9F4F12C28C0CD2B31F5012B21F583
:10053000D0CF60E0E12C209761F460E0EE24E394FA
:10054000009709F0E12CA114B10409F4BBCF209766
:1005500031F3F12C0115110559F4FF24F3940097A0
:1005600009F0F12CAB2801F3CD2B31F0012B21F058
:10057000C1E0892B09F4B1CFC0E0AFCF61E0209793
:08058000E9F69ECFF894FFCFCD
:00000001FF
